:020000040800F2
:10000000004800206501000843040008AB03000815
:1000100041040008D9010008E90A000800000000B6
:10002000000000000000000000000000B107000810
:10003000DB01000800000000450400085D0800081E
:100040007F0100087F0100087F0100087F01000890
:100050007F0100087F0100087F0100087F01000880
:100060007F0100087F0100087F0100087F01000870
:100070007F0100087F0100087F0100087F01000860
:100080007F0100087F0100087F0100087F01000850
:100090007F0100087F0100087F0100087F01000840
:1000A0007F0100087F0100087F0100087F01000830
:1000B0007F0100087F0100087F0100087F01000820
:1000C0007F0100087F0100087F0100087F01000810
:1000D0007F0100087F0100087F0100087F01000800
:1000E0007F0100087F0100087F0100087F010008F0
:1000F0007F0100087F0100087F0100087F010008E0
:100100007F0100087F0100087F0100087F010008CF
:100110007F0100087F0100087F0100087F010008BF
:100120007F0100087F0100087F0100087F010008AF
:10013000DFF80CD000F03EF800480047A10D0008A1
:1001400000480020EFF30980704780F3098870476A
:10015000EFF30880704780F30888704740BA704713
:10016000C0BA70470648804706480047FEE7FEE7EA
:10017000FEE7FEE7FEE7FEE7FEE7FEE7FEE7FEE757
:10018000610800083101000830B50B460146002027
:100190002022012409E021FA02F59D4205D303FA49
:1001A00002F5491B04FA02F52844151EA2F10102CA
:1001B000F1DC30BD064C074D06E0E06840F001037D
:1001C00094E8070098471034AC42F6D3FFF7B4FF29
:1001D000180F0008380F0008FEE7704770B5054695
:1001E0004FF43026304600F07DF8042811D1094C38
:1001F000206940F0020020616561206940F0400004
:100200002061304600F06EF8216941F6FD72114020
:10021000216170BD0020024008490420CA68D2074D
:1002200001D001207047CA68520701D502207047EB
:10023000C968C906FBD503207047000000200240B2
:100240000248016941F080010161704700200240CD
:1002500004490A6822F010020A600A6802430A6030
:1002600070470000002002402DE9F84106460020BA
:100270004FF4005700900D46384600F033F804283C
:1002800016D10C4C206940F0010020613580B84641
:10029000384600F027F8BF1E042806D1B61C280CEB
:1002A00000963080404600F01DF8216939402161F8
:1002B000BDE8F88100200240034A116801F03801CE
:1002C00001431160704700000020024003480249CA
:1002D00041600349416070472301674500200240A7
:1002E000AB89EFCD00B50346FFF796FF02E0FFF7BD
:1002F00093FF5B1E012803D0002B00D1052000BD19
:10030000002BF4D1FAE7F0B5CC78002204F00F030B
:10031000E40601D58C7823430C784FF00F0C14F0D1
:10032000FF0F4FF0010E1BD005680E880EFA02F485
:100330002640A64210D196000CFA06F725EA0707D8
:1003400003FA06F5CE783D43282E02D0482E02D07F
:1003500002E0446100E00461521C082AE5D3056014
:100360000A88FF2A1CD94468002202F108060EFA06
:1003700006F50E882E40AE420ED196000CFA06F716
:10038000BC4303FA06F7CE783C43282E00D14561E2
:10039000CE78482E00D10561521C082AE5D344606E
:1003A000F0BD4161704701617047FEE770B5174DC0
:1003B00029681748174C0140B1F1005F0CD00221A9
:1003C0002046FFF7F0FF01212046FFF7EAFFBDE8D6
:1003D000704011A000F08ABB14A000F087FB174EFC
:1003E0000021304600F067FA2821304600F060FA1C
:1003F00000F0A2F803212046FFF7D3FF6C682868BD
:10040000FFF7A9FEA446BDE8704060470000010860
:100410000000FE2F000801400D0A2052756E206179
:100420007070206572726F72200D0A000D0A2052E2
:10043000756E20617070200D0A00000000480040B9
:10044000FEE7704770470000044A0029516901D057
:10045000014300E0814351617047000000100240F9
:10046000044A0029D16901D0014300E08143D161F0
:100470007047000000100240044A0029916901D031
:10048000014300E081439161704700000010024089
:1004900070B500F051F80220FFF70EFF1020FFF7B3
:1004A000D7FE4FF48036304600F0DAF800F026F937
:1004B000B5111E4C012829D000F03EF8012000F0B3
:1004C000E9F8212000F0A2F80028FAD0002000F07E
:1004D000BDF8284600F0E4F8002000F0EBF84FF4F7
:1004E0006011002000F0F6F811482060012000F0B3
:1004F000EBF8392000F08AF80028FAD0022000F04A
:10050000F3F800F09BF80828FBD170BD002000F044
:100510009DF8284600F0C4F8002000F0CBF84FF416
:10052000E011304600F0D6F80248DEE71C0000205B
:100530000090D00300A24A040C48016841F0010178
:10054000016041680A4A114041600168094A11404E
:100550000160016821F480210160416821F4FE01FD
:1005600041604FF41F01816070470000001002409D
:100570000000FFF8FFFFF6FE30B5204A5168204B1F
:1005800011F00C0103D0042901D0082901D0036027
:1005900012E05168536801F470114FF0020413F433
:1005A000803F04EB914102D053689B0301D5154B6A
:1005B00000E0134B5943016051680F2303EA111106
:1005C000114B5C5C0168E14041605468072505EA15
:1005D00014241C5D21FA04F48460546805EAD424D0
:1005E0001B5DD940C1605268032303EA9232064B77
:1005F0001B1F9A5CB1FBF2F1016130BD001002409B
:1006000000127A0000093D0034000020034600205B
:100610005909094A01290AD002290AD0516A03F06E
:100620001F02012393400B4200D001207047116844
:10063000F5E7116AF3E70000001002400248406845
:1006400000F00C007047000000100240034A51689F
:1006500021F0F0010143516070470000001002409A
:100660000B490A6822F480320A600A6822F4802268
:100670000A60B0F5803F07D0B0F5802F03D108683D
:1006800040F4A02008607047086840F48030F9E723
:10069000001002400149086070470000000042421B
:1006A000034A516821F4E061014351607047000042
:1006B00000100240034A516821F4605141EAC00031
:1006C0005060704700100240014908667047000002
:1006D00000004242034B5A68084322F47C12104344
:1006E0005860704700100240034A516821F003012E
:1006F00001435160704700000010024018B500200F
:100700004FF4A06400903120FFF780FF0099491C4E
:100710000091A14201D00028F5D03120FFF776FFEB
:10072000002800D0012018BDB0F1006F02D24FF0B8
:10073000FF307047C0F3CF20C00200F10060704767
:100740002DE9F041042690460F460446B0F1006FB3
:100750002AD3A00728D1FFF7B9FD1448254604EB9A
:10076000880884420DD319E02868401C08D0284628
:10077000FFF7DAFFFFF732FD0646042801D00FE04D
:100780002D1D4545F0D3042E08D009E020463968D8
:10079000FFF76AFD042803D1241D3F1D4445F5D30E
:1007A000BDE8F041FFF74CBDBDE8F0810000FF1F40
:1007B000704700000CB500222648009201920168A3
:1007C00041F4803101604FF4A063016801F400310D
:1007D00001910099491C0091019911B90099994220
:1007E000F3D10168890333D5012101911A490A68BF
:1007F00042F010020A600A6822F003020A600A68E6
:1008000042F002020A60416841604168416041680B
:1008100041F480614160416821F47C11416041688C
:1008200041F4E8114160016841F0807101600168A4
:100830008901FCD5416821F003014160416841F024
:10084000020141604168C1F381010229FAD10CBD66
:1008500001920CBD001002400020024070470000D1
:100860000F4810B5016841F00101016041680D4A6F
:100870001140416001680C4A11400160016821F497
:1008800080210160416821F4FE0141604FF41F01A5
:100890008160FFF78FFF05494FF00060086010BDD1
:1008A000001002400000FFF8FFFFF6FE08ED00E038
:1008B000C943018070470029818902D041F4005169
:1008C00001E021F400518181704702460020128826
:1008D0000A4200D00120704730B50446008A85B036
:1008E0000D464CF6FF710840E98801432182A0893A
:1008F0004EF6F3110840A9882A8911436A890243F8
:100900001143A181A08A4FF6FF410840A989014304
:10091000A1826846FFF730FE1948844201D103984E
:1009200000E00298A189090400EBC00101EB00106E
:10093000296801D5490000E08900B0FBF1F064228C
:10094000B0FBF2F109010B096FF018056B4300EBE6
:100950008300A3891D044FF0320306D503EBC000CA
:10096000B0FBF2F000F0070005E003EB0010B0FB75
:10097000F2F000F00F000843208105B030BD000008
:10098000003801408088C0F3080070472DE9F0412D
:100990003C4C20212046FFF798FF00282DD028212D
:1009A0002046FFF785FF2046FFF7ECFF374CC5B226
:1009B000354FE088374E02213D54401CE0803448DA
:1009C000A0613046FFF7EFFCDFF8CC800221404603
:1009D000FFF7E9FC6078012806D0E1883846BDE8D9
:1009E000F041491E00F058B960896169884206DA11
:1009F0002A490D5400F101006081BDE8F081FCD16D
:100A0000264800F073FAA0706269B91849798142EA
:100A100030D100206081607020702049206900F092
:100A20005FF9206900F500602061A089401C81B257
:100A3000A1811BA000F05AF800F00AFA20890028D2
:100A4000DBD11AA000F052F801213046FFF7ABFCD1
:100A500002213046FFF7A5FC1C48A061401EA061A2
:100A6000401C01D0A069F9E74046BDE8F0410221F1
:100A7000FFF797BC00F0DCF9A189BDE8F04114A0B4
:100A800000F034B8004800400010002000000020B2
:100A9000404B4C0000080140001801400038002085
:100AA00050617274202564203A0000000D0A20462F
:100AB00069726D7761726520557064617465206636
:100AC000696E6973686564202E0D0A0080FC0A0057
:100AD0004661696C656420746865202564207469CA
:100AE0006D65200D0A000000FEE700000FB4054B05
:100AF00010B503A9044A029800F018F810BC5DF87C
:100B000014FB0000810C00084400002002E008C82B
:100B1000121F08C1002AFAD170477047002001E077
:100B200001C1121F002AFBD1704700002DE9FF4FC1
:100B300089B09B460446002506E025280BD05A467E
:100B40000B999047641C6D1C20780028F5D10DB0DE
:100B50002846BDE8F08F0027B8460122474900E04B
:100B6000074314F8013F203B02FA03F00842F7D193
:100B700020782E2819D114F8010F47F004072A28ED
:100B80000ED06FF02F022078A0F1300109290CD887
:100B900008EB880102EB410100EB0108641CF2E75D
:100BA0000A98641C50F8048B0A9020780028CED054
:100BB000642808D0692806D075281ED05A460B999B
:100BC00090476D1C58E00A994FF00A0901C90A9133
:100BD000002802DA40422D2102E0390504D52B21FC
:100BE0008DF82010012103E0F90704D02021F7E758
:100BF0008A4608AE0DE00021FAE70A994FF00A098B
:100C000001C90A91F7E74946FFF7BEFA303106F805
:100C1000011D0028F7D1ADEB060000F1200978078F
:100C200001D44FF00108C84502DDA8EB090000E03F
:100C300000208046002706E008A85A46C05D0B99B0
:100C400090476D1C7F1C5745F6DB04E030205A4668
:100C50000B9990476D1CB8F10001A8F10108F5DC73
:100C600005E016F8010B5A460B9990476D1CB9F137
:100C70000001A9F10109F4DC641C65E70928010001
:100C800004490A885206FCD5024AC1B2121D1180DD
:100C900070470000004800400123104A022910D08C
:100CA000042917D11178012914D1C178007901EBF9
:100CB00000205061B0F5006F01DC00280BDC00F073
:100CC000B7B80178232905D18178232902D140784A
:100CD00010811370704753707047000000000020AF
:100CE0002DE9F047002517460C4682462E464FF464
:100CF0000078DFF8509017E0E078A178000640EA2D
:100D000001406178424640EA012014F8041B014387
:100D100049F825106D1CADB2954204D10025094952
:100D20005046FFF70DFD361DBE42E5D3002D06D01F
:100D30002A465046BDE8F0470249FFF701BDBDE82D
:100D4000F087000048000020F8B501216D20FFF772
:100D500093FB0320ADF8000010250F4E8DF80350D3
:100D600001248DF8024069463046FFF7CCFA032192
:100D70003046FFF716FB0220ADF800008DF8035057
:100D80008DF80240054C69462046FFF7BCFA022167
:100D90002046FFF706FBF8BD00080140001801409F
:100DA000FFF776FBFFF7D0FF4FF4E13000F05EF87D
:100DB00028211448FFF77CFD134E144FDFF85080B4
:100DC000144C002514A0FFF791FE01213046FFF7D7
:100DD000EAFA02213046FFF7E4FAA580E580A76130
:100DE000FFF7D4FDA069401EA061F9D1FFF7DEFA3C
:100DF0004046C4F81880401EA061401CE2D0A069A3
:100E0000F9E700000048004000080140A02C100055
:100E100080FC0A00000000200D0A20426F6F746CF5
:100E20006F616465722056312E3032200D0A000049
:100E300010B503A0FFF75AFE04490020C88010BD7A
:100E40004572726F72200D0A000000000000002041
:100E500010B503A0FFF74AFE03490020C88010BD6B
:100E60004F4B200D0A0000000000002030B5044662
:100E700085B001210820FFF7E7FA01218804FFF778
:100E8000EFFA4FF48061ADF8101018218DF81310AF
:100E90000320144D8DF8120004A92846FFF733FAF9
:100EA000E914ADF8101048208DF8130004A9284665
:100EB000FFF729FA0020ADF804000094ADF8060011
:100EC000ADF80800ADF80C000C20074CADF80A0096
:100ED00069462046FFF700FD01212046FFF7EBFCA5
:100EE00005B030BD000C01400048004030B503465D
:100EF00000208C240DE013F8012B50400022C50780
:100F000002D084EA500000E04008521CD2B2082A05
:100F1000F5D3491EEFD230BD380F00080000002085
:100F2000480000000C0B0008800F0008480000205B
:100F3000B84700001C0B0008000000000000000083
:100F40000000000000000000000001080000000098
:100F50000000000000A24A040000000000000000A1
:100F60000102030406070809020406080000000045
:100F7000010203040102030406070809000000003F
:0400000508000131BD
:00000001FF
